:020000040800F2
:1000000038070020450100084D0100084F01000895
:1000100051010008530100085501000800000000CC
:100020000000000000000000000000005701000870
:1000300059010008000000005B0100085D01000894
:100040005F0100085F0100085F0100085F01000810
:100050005F0100085F0100085F0100085F01000800
:100060005F0100085F0100085F0100085F010008F0
:100070005F0100085F0100085F0100085F010008E0
:100080005F0100085F0100085F0100085F010008D0
:100090005F0100085F0100085F0100085F010008C0
:1000A0005F0100085F0100085F0100085F010008B0
:1000B0005F0100085F0100085F0100085F010008A0
:1000C0005F0100085F0100085F0100085F01000890
:1000D0005F0100087D2C00085F0100085F01000837
:1000E0005F0100085F0100085F0100085F01000870
:1000F0005F0100085F0100085F0100085F01000860
:100100005F0100085F0100085F0100085F0100084F
:100110005F0100085F0100085F0100085F0100083F
:100120005F0100085F0100085F0100085F0100082F
:10013000DFF80CD000F06EFA00480047A12F00084D
:10014000380700200648804706480047FEE7FEE7DC
:10015000FEE7FEE7FEE7FEE7FEE7FEE7FEE7FEE777
:10016000E52A0008310100082DE9FE4F804681EAAA
:100170000300C00F0C46009021F0004123F0004521
:10018000B8EB0200A94105D24046214690461C46E4
:100190000B46024623F00040104304D1404621465E
:1001A00003B0BDE8F08F270DC7F30A00C3F30A516F
:1001B0000290401A0190402866DAC3F3130040F41D
:1001C000801B0098924620B10023D2EB030A63EB18
:1001D0000B0B01985946C0F14002504600F089F9D6
:1001E00006460D4650465946019A00F0A1F910EB1B
:1001F00008006141002487EA115284EAE7731A4338
:100200003BD0009A3AB3019A012A4FEA075210DC18
:10021000001B61EB02014FF0004202EA0752CDE9F8
:100220000042001C41F5801132462B4600F09FF938
:10023000B6E7001B61EB0201001C41F580130018BA
:100240005B412018A2F5001747EB030140EAD57087
:10025000B6196D4111E06D084FEA360645EAC075E2
:100260004FEA0752001B61EB0201001C41F58011AF
:1002700049084FEA30000019514132462B4603B07D
:10028000BDE8F04F00F066B900980122400000235D
:10029000D0EB020263EBE073009821464FEAE07472
:1002A000B8EB000061EB0401E9E783F000435BE792
:1002B00081F0004158E72DE9FE4F81EA030404F084
:1002C000004421F0004100944FF0000B23F0004364
:1002D00050EA010402D052EA030404D1002001468E
:1002E00003B0BDE8F08FC3F30A54C1F30A552C44A0
:1002F000A4F2F3340194A0FB0254C1F3130141F4BE
:100300008011C3F3130343F4801301FB024400FB89
:10031000034E840A970A44EA815447EA8357A4FBB0
:10032000076802958D0A05FB07854FEA932C04FBAD
:100330000C542705029D4FEA065847EA1637B5EBDD
:1003400008056EEB070C870E920E47EA811742EA0A
:100350008312A7FB0201B6EB0B0164EB00042B0D2B
:1003600043EA0C335E1844EB1C50DA465146E7FB77
:100370000201C5F313044FEA0B3343EA14534FEA67
:100380000432019C43EA0603A4F10C040294009C8D
:10039000CDE900B400F0EBF8A2E72DE9F04D81EAD9
:1003A000030404F0004B21F0004514464FF0000A0E
:1003B00023F0004150EA050220D054EA01021DD08A
:1003C000C5F30A570246C5F31303C1F31300C1F383
:1003D0000A5640F4801543F48013A7EB0608101B5F
:1003E000D64608F2FD3873EB050002D308F1010888
:1003F00001E092185B41B8F1000F03DA00200146DA
:10040000BDE8F08D00204FF48011064684460EE0D2
:10041000171B73EB050705D3121B63EB050306439C
:100420004CEA010C49084FEA300092185B4150EA4F
:100430000107EDD152EA030012D082EA040083EAF8
:100440000501084303D100224FF0004308E0101BD0
:10045000AB4102D20122002302E06FF001025310EF
:100460001AEB06004CEB085110EB0A0041EB0B01B4
:10047000BDE8F04D00F06EB80EB5C10F80EAE07037
:100480000844CA07002140F233438DE80E000A46B3
:100490000B4600F06CF803B000BD0EB540F23341DE
:1004A00002910021CDE900110A460B4600F05FF8E9
:1004B00003B000BD70B5C1F30A5201F0004500243D
:1004C000C1F3130140F2FF3341F480119A4201DA83
:1004D000002070BD40F233439A42A2F2334203DC63
:1004E000524200F015F800E090402C43F1D0404219
:1004F00070BD202A04DB203A00FA02F10020704788
:100500009140C2F1200320FA03F319439040704751
:10051000202A04DB203A21FA02F00021704721FA58
:1005200002F3D040C2F120029140084319467047BF
:10053000202A06DBCB17203A41FA02F043EAE073A7
:1005400006E041FA02F3D040C2F120029140084394
:100550001946704710B5002B08DA401C41F1000124
:1005600092185B411A4301D120F0010010BD2DE922
:10057000F04D92469B4611B1B1FA81F202E0B0FA19
:1005800080F220329046FFF7B4FF04460F4640EA5F
:100590000A0041EA0B0153465A46084303D120465C
:1005A0003946BDE8F08D114653EA010015D0C8F177
:1005B00040025046FFF7ACFF05460E4650465946EE
:1005C0004246FFF796FF084301D0012000E00020DB
:1005D000054346EAE0762C4337430A984FEA4453F2
:1005E000A0EB08004FEAD4240A304FF0000244EA9E
:1005F00047544FEAD72502D500200146D1E701052F
:1006000010196941DDE9084500196941BDE8F04D5F
:10061000A0E70000064C074D06E0E06840F001034B
:1006200094E8070098471034AC42F6D3FFF784FDF6
:10063000003200082032000870B58D1810F8014B08
:1006400014F0030201D110F8012B231106D110F888
:10065000013B03E010F8016B01F8016B521EF9D168
:10066000B3B110F8012B04F00C048A1A0C2C04D03E
:10067000A2EB841203F1020308E010F8014BA2EB95
:100680000422F7E712F8014B01F8014B5B1EF9D584
:10069000A942D3D3002070BD21B1826842F001028B
:1006A000826003E0826822F00102826070470000ED
:1006B00010B504461248844208D10121401501F0CA
:1006C000CDFD0021601501F0C9FD17E00D48844201
:1006D00008D10121001501F0C1FD0021201501F014
:1006E000BDFD0BE00848844208D10121C80301F098
:1006F000B5FD00214FF4004001F0B0FD10BD000039
:100700000024014000280140003C01400146002037
:100710008A6812F0040F01D0012000E00020704729
:100720000146C86C80B27047014600208A6812F00A
:10073000080F01D0012000E00020704730B50246CC
:100740000020002350680F4C20400D790C6844EACB
:1007500005242043506090680B4C2040D1E902549E
:100760002C434D7944EA450420439060D06A20F43C
:1007700070000C7C641EE4B2234340EA0350D06254
:1007800030BD0000FFFEF0FFFDF7F1FFF0B50446BD
:100790000D4600200021092D11DDE068A5F10A06B3
:1007A00006EB4607072606FA07F18843A5F10A0675
:1007B00006EB460603FA06F10843E0600CE0206908
:1007C00005EB4507072606FA07F1884305EB4506C2
:1007D00003FA06F108432061072A0FDA606B561E00
:1007E00006EB86071F2606FA07F18843561E06EB1E
:1007F000860605FA06F10843606322E00D2A0FDA47
:10080000206BD61F06EB86071F2606FA07F18843E2
:10081000D61F06EB860605FA06F10843206310E0B2
:10082000E06AA2F10D0606EB86071F2606FA07F11D
:100830008843A2F10D0606EB860605FA06F1084389
:10084000E062F0BD816841F008018160704721B12C
:10085000826842F4A002826003E0826822F4A0026F
:1008600082607047816841F0040181607047000038
:1008700010B53C4800683C49096888421ADD39488F
:100880000068002801DD012000E0002035490968EA
:10089000642901DA012100E0002108420AD0012088
:1008A000324908603248007808B901F0A3FF0120FE
:1008B0002F4908702B4800682B490968884202DCE0
:1008C00000202B4908702B48007801280FD18102A5
:1008D000294800F076FB50B90120244908602748D8
:1008E000007808B901F06AFF0120244908704FF42C
:1008F0008061214800F065FB012802D100201F49DA
:1009000008701F4800681F49096888420ADD0120F5
:10091000164908601C48007808B901F01BFF012047
:10092000194908701648006816490968884202DCAF
:100930000020154908701248006812490968884269
:100940000FDC0848006808490968884209DC4FF450
:100950008061094800F035FB012802D100200349DD
:10096000086010BD580000205C000020AC0121424E
:10097000220000203C010020000C01402400002047
:100980009C020020A00200202300002010B50024BB
:100990001548006820F00F001349086008460068F9
:1009A00040F00800086004E0601CC4B2012002F0BE
:1009B000ECFA0E48006808B1C82CF5DBC82C01DB46
:1009C000012010BD002404E0601CC4B2012002F02C
:1009D000DCFA0648006808B9F02CF5DBF02C01DBE6
:1009E0000120EEE70020ECE7000C014000812142ED
:1009F0002DE9F04700F0ECF800F0C8F8FFF7C6FF6B
:100A0000CC2000F0F1F8BE2000F0EEF800F0ACF8D9
:100A1000814600F0A9F80446240244EA0904002CA7
:100A200021DB2046FFF728FD07460022214BFFF778
:100A300042FC0546FFF73EFD04468B2002F07CFB9E
:100A4000202002F0ABFB002C01DD012000E00020A3
:100A5000642C01DA012100E00021084226D00120A7
:100A60001549087022E0E043441C2046FFF704FDCE
:100A7000074600220F4BFFF71EFC0546FFF71AFD45
:100A800004468B2002F058FB2D2002F087FB002C3F
:100A900001DD012000E00020642C01DA012100E0EA
:100AA0000021084202D00020034908702046BDE81A
:100AB000F08700000000B03F6000002008B5012171
:100AC000082001F0BBFB0120ADF8000010208DF8DC
:100AD000030003208DF802006946064800F0E8F99B
:100AE0000121044800F078FA00F050F8FFF74EFFBB
:100AF00008BD0000000C014010B51748006820F048
:100B00000F00154908600846006840F003000860BF
:100B10000020124908604FF0020002F036FA01206E
:100B20000F49C1F880010C48006820F00F000A4905
:100B300008600846006840F0080008600C2002F0D9
:100B400024FA0848006808B1012400E0002432209B
:100B500002F01BFA204610BD000C014080812142AA
:100B6000008021420081214270B50026012508E065
:100B7000FFF7C2FF0446E00140EA6600C6B2681C07
:100B8000C5B2082DF4DD304670BD000000B50D483B
:100B9000006820F00F000B4908600846006840F02C
:100BA0000300086000200849086040F2EE2002F0CF
:100BB000ECF901200549C1F880010F2002F0E5F9A8
:100BC00000BD0000000C01408081214200802142D4
:100BD00000B5FFF7DBFFFFF7D9FECC2000F004F8EB
:100BE000442000F001F800BD70B5044619480068C3
:100BF00020F00F00174908600846006840F0030025
:100C00000860012522E004F00106641076B100209E
:100C1000114908604FF0020002F0B7F901200F49B6
:100C2000C1F880013C2002F0B0F90DE000200A4933
:100C300008604FF03C0002F0A8F901200749C1F814
:100C40008001022002F0A1F9681CC5B2082DDADD8E
:100C500070BD0000000C01408081214200802142D3
:100C6000014606E041F2883200E0521E002AFCD123
:100C7000491E0029F6D1704700E0401E0028FCD133
:100C80007047000008B50121042001F0D7FA4FF4A5
:100C90000060ADF8000003208DF8020010208DF8F0
:100CA00003006946074800F003F94FF48060ADF88F
:100CB000000048208DF803006946034800F0F8F86A
:100CC00008BD000000080140000C014008B50121EA
:100CD000082001F0B3FA4FF47040ADF8000048204E
:100CE0008DF8030069462C4800F0E2F84FF480705C
:100CF000ADF8000048208DF803006946274800F051
:100D0000D7F84FF48050ADF8000003208DF80200B2
:100D100010208DF803006946204800F0C9F8012032
:100D20001F4908604FF0030000F0F4F91D490870F6
:100D3000042000F0EFF91B494870052000F0EAF9A3
:100D400018498870062000F0E5F91649C870072098
:100D500000F0E0F913490871082000F0DBF91149AF
:100D60004871092000F0D6F90E498871102000F072
:100D7000D1F90C49C871112000F0CCF90949087269
:100D8000122000F0C7F907494872132000F0C2F999
:100D90000449887208BD0000000C014000080140B1
:100DA000B00121426100002008B50121102001F0AE
:100DB00045FA4FF46040ADF8000003208DF80200C2
:100DC00010208DF8030069460A4800F071F80121EF
:100DD000042001F033FAFF20ADF8000003208DF865
:100DE000020010208DF803006946034800F060F807
:100DF00008BD0000001001400008014000B585B0AA
:100E00000121880301F01AFA4FF4165001900020D6
:100E1000ADF80800ADF80A00ADF80C00ADF8100010
:100E20000C20ADF80E0001A91E4801F0E9FF0122D7
:100E300040F225511B4801F0BEFF0121194801F085
:100E400084FF4FF40070ADF8000018208DF8030007
:100E500003208DF802006946134800F029F84FF48A
:100E60008060ADF8000004208DF8030003208DF8A9
:100E7000020069460C4800F01BF80121082001F02F
:100E8000DDF94FF40060ADF8000003208DF802009A
:100E900010208DF803006946044800F009F805B0F9
:100EA00000BD00000038014000080140000C014076
:100EB0002DE9F041024600250026002000230024F1
:100EC000002791F803C00CF00F0591F803C01CF047
:100ED000100F03D091F802C04CEA050591F800C04C
:100EE000BCF1000F31D0146800202BE04FF0010C52
:100EF0000CFA00F3B1F800C00CEA03069E4220D1C0
:100F000083004FF00F0C0CFA03F7BC4305FA03FC07
:100F10004CEA040491F803C0BCF1280F06D14FF04D
:100F2000010C0CFA00FCC2F814C00AE091F803C0EE
:100F3000BCF1480F05D14FF0010C0CFA00FCC2F8CF
:100F400010C0401C0828D1D31460B1F800C0BCF117
:100F5000FF0F34DD546800202EE000F1080C4FF044
:100F6000010808FA0CF3B1F800C00CEA03069E422F
:100F700021D183004FF00F0C0CFA03F7BC4305FAA4
:100F800003FC4CEA040491F803C0BCF1280F05D11E
:100F900000F1080C08FA0CF8C2F8148091F803C0AC
:100FA000BCF1480F07D100F1080C4FF0010808FA16
:100FB0000CF8C2F81080401C0828CED35460BDE85D
:100FC000F0810246002093680B4201D0012000E02E
:100FD00000207047416170470161704710B50521DD
:100FE0001F4801F039FB42F2107001F0B6FF0321F7
:100FF0001C4801F031FB642001F0AFFF0A211A48C0
:1010000001F02AFB44F6206001F0A7FF0E211748EB
:1010100001F022FB47F2305001F09FFF0A211448F3
:1010200001F01AFB42F2107001F097FF09211148FC
:1010300001F012FB42F2107001F08FFF0C210E48FC
:1010400001F00AFB42F2107001F087FF0B210B4800
:1010500001F002FB42F2107001F07FFF10BD0000B2
:10106000CB0100203F010020440100209E01002010
:10107000AE010020BA01002069010020910100208A
:1010800021B1028842F48062028004E002884FF6B7
:10109000FF331A400280704770B5024600240025D5
:1010A00000230020958A138B1B0445EA030626F0D3
:1010B0007F4404EA01068E4201D1012000E00020B5
:1010C00070BD21B1028842F00102028004E0028872
:1010D0004FF6FE731A4002807047000010B50446B8
:1010E0000B48844209D10121480501F097F80021FD
:1010F0004FF4001001F092F808E00121880501F09A
:101100008DF800214FF4800001F088F810BD000038
:101110000054004070B50446012500BF4FF4003173
:10112000304800F0BBF80028F8D101212D4800F02C
:101130009DF800BF2C492B48FFF7AEFF0028F9D0DF
:101140000022A021274800F0A3F900BF2749254825
:10115000FFF7A2FF0028F9D001212248FFF7B1FFD5
:101160002146204800F09DF900BF2049891C1D48F8
:10117000FFF792FF0028F8D001211A4800F076F816
:1011800000BF19491748FFF787FF0028F9D001224F
:10119000A121144800F07CF900BF1349491C1148F3
:1011A000FFF77AFF0028F8D013E000210D48FFF781
:1011B00067FF01210B4800F065F80B493F310948F2
:1011C000FFF76AFF28B1074800F05EF90646681E7F
:1011D00085B2002DE9D101210248FFF751FF3046C9
:1011E00070BD0000005400400100030082000700B1
:1011F00070B504460D460121194800F037F800BFCC
:1012000018491748FFF748FF0028F9D00022A0210D
:10121000134800F03DF900BF13491148FFF73CFFA8
:101220000028F9D029460E4800F03BF900BF0E49CE
:10123000891C0B48FFF730FF0028F8D021460848EA
:1012400000F02FF900BF0849891C0548FFF724FF6B
:101250000028F8D00121024800F014F870BD000009
:1012600000540040010003008200070021B1028801
:1012700042F48072028004E002884FF6FF631A4055
:101280000280704721B1028842F40072028004E0BB
:1012900002884FF6FF531A40028070470CB5024691
:1012A000002000230193009300920B0F019321F083
:1012B0007F41019B1BB1009B1433009303E0090C99
:1012C000009B18330093009B1B680B4201D0012048
:1012D00000E000200CBD00002DE9F04385B004467D
:1012E0000D460026B1460427DFF8CC80A6884FF6CD
:1012F000C0700640684600F0C1FFDDF808802F4846
:10130000B8FBF0F01FFA80F946EA0906A6802088AB
:101310004FF6FE710840208000262949286888423F
:101320000CD828684000B8FBF0F087B2042F00DA30
:1013300004273E4309F10100208427E0E888A0F556
:101340003F41FF3906D1286800EB4000B8FBF0F0C0
:1013500087B209E0286800EBC00101EB0010B8FB80
:10136000F0F087B247F480473805000D01D147F00F
:10137000010747F4004006434FF4967009FB00F064
:101380004FF47A7190FBF1F0401C2084A6832088F2
:1013900040F00100208026884FF6F5300640A888EE
:1013A0006989084306432680A88929890843208142
:1013B00005B0BDE8F083000000127A0040420F0043
:1013C000A086010010B586B000240121082000F09D
:1013D00035FF0121480500F011FF4020ADF8140051
:1013E00014208DF8170003208DF8160005A9244855
:1013F000FFF75EFD00BF0FE040212148FFF7ECFD45
:101400000A20FFF739FC40211D48FFF7E3FD0A20C1
:10141000FFF732FC601CC4B20A2CEDDBC020ADF833
:1014200014001C208DF8170003208DF8160005A964
:101430001348FFF73DFD1348FFF750FE0020ADF8BD
:1014400008004BF6FF70ADF80A00D020ADF80C0094
:101450004FF48060ADF80E000001ADF810004CF2C2
:101460005030019001210748FFF72BFE01A90548E4
:10147000FFF732FF01210348FFF702FE06B010BD5F
:10148000000C0140005400400146088AC0B2704779
:1014900012B141F0010102E04FF6FE7319400182E2
:1014A00070470182704710B545F2555000F02CF896
:1014B000062000F01DF840F21A6000F01FF800F05E
:1014C0000FF800F001F810BD4CF6CC40014908605F
:1014D000704700000030004010B500F001F810BD6A
:1014E0004AF6AA2001490860704700000030004019
:1014F00001494860704700000030004001498860A1
:10150000704700000030004001490860704700004B
:101510000030004010B54FF40041FE48FFF751FD88
:10152000002845D1022001F00CFD4FF40041F9489C
:10153000FFF747FD00283BD100BF4FF40041F548BD
:10154000FFF73FFD0028F8D0F348007808B90120E4
:1015500000E00020F049087008460078012812D108
:10156000EE490870EE4900F093FDEE49022000F0CC
:101570008FFD802001F0E0FD3E2001F00FFE0020F5
:10158000E94908700EE0E949012000F081FDE849D1
:10159000022000F07DFD0020E0490870E24908705B
:1015A000DD4908700C2001F0C7FD0020DE490870FD
:1015B0004FF48041D748FFF704FD00287ED1022078
:1015C00001F0BFFC4FF48041D248FFF7FAFC00283D
:1015D000F4D100BF4FF48041CE48FFF7F2FC002861
:1015E000F8D0D1480078401CCF490870CB4800782B
:1015F00001287DD108460078012810D1CD4900F09E
:1016000047FDCD49022000F043FDCC49022000F007
:1016100025FDC22001F090FD0F2001F08DFDC24894
:10162000007802280AD1C54908780321FFF7E0FDB8
:10163000C32001F081FD0F2001F07EFDBA48007843
:1016400003280AD1BD4948780421FFF7D1FDC42001
:1016500001F072FD0F2001F06FFDB34800780428FF
:101660000AD1B64988780521FFF7C2FDC52001F0EF
:1016700063FD0F2001F060FDAB48007805280AD11A
:10168000AE49C8780621FFF7B3FDC62001F054FD2E
:101690000F2001F051FDA448007806280AD1A7497F
:1016A00008790721FFF7A4FDC72001F045FD0F20B1
:1016B00001F042FD9C480078072800E0D1E00AD103
:1016C0009E4948790821FFF793FDC82001F034FDB9
:1016D0000F2001F031FD9448007808280CD197497B
:1016E00088790921FFF784FDC92001F025FD00E07C
:1016F0004BE00F2001F020FD8B48007809280AD12B
:101700008E49C8791021FFF773FDCA2001F014FD3E
:101710000F2001F011FD844800780A280AD187497A
:10172000087A1121FFF764FDCB2001F005FD0F20A1
:1017300001F002FD7C4800780B280AD17F49487AE5
:101740001221FFF755FDCC2001F0F6FC0F2001F02F
:10175000F3FC754800780C2817D17849887A132152
:10176000FFF746FD0020704908700C2001F0E4FCF2
:101770006E49012000F08CFC6D49022000F088FCCD
:10178000002066490870644908706448007802289F
:1017900031D165480078012811D1694900F078FC01
:1017A0006849022000F074FC674801784C2001F081
:1017B0009CFBCC2001F0C0FC0F2001F0BDFC5A487E
:1017C0000078022817D10020574908700C2001F03A
:1017D000B3FC5D4908780121FFF70AFD5349012058
:1017E00000F056FC5249022000F052FC00204B4908
:1017F00008704949087049480078032831D14A489F
:101800000078012811D1514900F042FC50490220D2
:1018100000F03EFC4F4801784C2001F066FBCC20E4
:1018200001F08AFC0F2001F087FC3F480078022875
:1018300017D100203C4908700C2001F07DFC45497F
:1018400008780221FFF7D4FC3849012000F020FC81
:101850003749022000F01CFC0020304908702E4956
:1018600008704FF400512B48FFF7ABFB002873D1F1
:10187000022001F066FB4FF400512648FFF7A1FB60
:101880000028F4D100BF4FF400512248FFF799FB24
:101890000028F8D024480078002870D11E4800782D
:1018A00001286CD11D480078401E1C49087008466C
:1018B0000078012801DA0320087018480078012810
:1018C0000FD1174900F0E4FB1649022000F0E0FBBD
:1018D000802001F031FC3E2001F060FC0020124924
:1018E00008700E480078022810D10D49012000F040
:1018F000CFFB0C49022000F0CBFBC02001F01CFC08
:101900003E2001F04BFC0020074908700348007896
:10191000032822E0000C01403B0100203901002097
:101920006D0000207E0000203A01002017010020F9
:1019300028010020B1000020C2000020610000202A
:10194000D3000020E40000205C000020F50000200F
:1019500006010020A002002094E010D1FE490120E1
:1019600000F096FBFD49022000F092FB802001F080
:10197000E3FB3E2001F012FC0020F9490870F84812
:10198000007800287ED0F748007801287BD1F44801
:101990000078012814D1F4480078401CF2490870FE
:1019A00008460078392801DD30200870EE49022011
:1019B00000F054FBC22001F0BFFB0F2001F0BCFB84
:1019C000E7480078022814D1E7484078401CE649EF
:1019D000487008464078392801DD30204870E249D7
:1019E000022000F03BFBC32001F0A6FB0F2001F01A
:1019F000A3FBDB480078032814D1DB488078401C27
:101A0000D949887008468078392801DD30208870EF
:101A1000D549022000F022FBC42001F08DFB0F20ED
:101A200001F08AFBCE480078042814D1CE48C07853
:101A3000401CCD49C8700846C078392801DD3020E7
:101A4000C870C949022000F009FBC52001F074FBF1
:101A50000F2001F071FBC2480078052817D1C24859
:101A60000079401CC049087108460079392801DD19
:101A700030200871BC49022000F0F0FAC62001F0C5
:101A80005BFB01E0CDE098E00F2001F055FBB4488E
:101A90000078062814D1B4484079401CB2494871F6
:101AA00008464079392801DD30204871AE490220CE
:101AB00000F0D4FAC72001F03FFB0F2001F03CFBFF
:101AC000A7480078072814D1A7488079401CA64968
:101AD000887108468079392801DD30208871A24953
:101AE000022000F0BBFAC82001F026FB0F2001F015
:101AF00023FB9B480078082814D19B48C079401CE0
:101B00009949C8710846C079392801DD3020C8716B
:101B10009549022000F0A2FAC92001F00DFB0F2028
:101B200001F00AFB8E480078092814D18E48007A0B
:101B3000401C8D4908720846007A392801DD3020A2
:101B400008728949022000F089FACA2001F0F4FAEB
:101B50000F2001F0F1FA824800780A2814D1824857
:101B6000407A401C804948720846407A392801DD95
:101B7000302048727C49022000F070FACB2001F03E
:101B8000DBFA0F2001F0D8FA754800780B2814D141
:101B90007548807A401C744988720846807A3928D2
:101BA00001DD302088727049022000F057FACC2005
:101BB00001F0C2FA0F2001F0BFFA6A48007802284B
:101BC00015D16A480068401C6849086008460068EA
:101BD000642801D100200860644801784C2001F09D
:101BE00084F9CC2001F0A8FA0F2001F0A5FA5D4895
:101BF0000078032815D15E480068401C5C490860E5
:101C000008460068642801D100200860584801781F
:101C10004C2001F06AF9CC2001F08EFA0F2001F07F
:101C20008BFA4FF480515348FFF7CBF900287DD150
:101C3000022001F086F94FF480514E48FFF7C1F9B8
:101C40000028F4D100BF4FF480514A48FFF7B9F99A
:101C50000028F8D042480078F0BB474800780128B7
:101C60004AD140480078401C3E4908700846007838
:101C7000032801DD012008703A48007801280FD1BF
:101C80003E4900F005FA3E49022000F001FA8020AA
:101C900001F052FA3E2001F081FA0020304908702C
:101CA00030480078022810D13449012000F0F0F9C2
:101CB0003349022000F0ECF9C02001F03DFA3E204B
:101CC00001F06CFA002026490870264800780328A5
:101CD00012D12149012000E00EE000F0D9F91F499E
:101CE000022000F0D5F9802001F026FA3E2001F014
:101CF00055FA00201A49087019480078002815D0B4
:101D00001848007801287DD115480078012816D19F
:101D100015480078401E144908700846007830289D
:101D200001DA392008701049022000E04EE100F08D
:101D300095F9C22001F000FA0F2001F0FDF90848E2
:101D4000007802282BD108484078401E0649487088
:101D500008464078302815E08F000020A0000020C1
:101D60003A01002039010020610000205C000020C1
:101D7000A0020020000C01403B0100206D0000206B
:101D80007E00002001DA39204870AA49022000F0C4
:101D900065F9C32001F0D0F90F2001F0CDF9A64874
:101DA0000078032814D1A3488078401EA149887088
:101DB00008468078302801DA392088709D49022051
:101DC00000F04CF9C42001F0B7F90F2001F0B4F98C
:101DD00099480078042814D19648C078401E954947
:101DE000C8700846C078302801DA3920C870914997
:101DF000022000F033F9C52001F09EF90F2001F018
:101E00009BF900E0AEE08C480078052814D18948A1
:101E10000079401E8749087108460079302801DAA8
:101E2000392008718349022000F018F9C62001F01A
:101E300083F90F2001F080F97F480078062814D13B
:101E40007C484079401E7B494871084640793028DB
:101E500001DA392048717749022000F0FFF8C720E5
:101E600001F06AF90F2001F067F97348007807283C
:101E700014D170488079401E6E4988710846807977
:101E8000302801DA392088716A49022000F0E6F82A
:101E9000C82001F051F90F2001F04EF96648007892
:101EA000082814D16348C079401E6249C8710846A9
:101EB000C079302801DA3920C8715E49022000F06B
:101EC000CDF8C92001F038F90F2001F035F95A4852
:101ED0000078092814D15748007A401E55490872E5
:101EE0000846007A302801DA392008725149022068
:101EF00000F0B4F8CA2001F01FF90F2001F01CF91E
:101F00004D4800780A2814D14A48407A401E494971
:101F100048720846407A302801DA3920487245492B
:101F2000022000F09BF8CB2001F006F90F2001F011
:101F300003F9414800780B2814D13E48807A401EAE
:101F40003C4988720846807A302801DA3920887244
:101F50003849022000F082F8CC2001F0EDF80F2083
:101F600001F0EAF835480078022815D134480068B5
:101F7000401E3349086008460068002801DA6320E3
:101F800008602F4801784C2000F0AFFFCC2001F012
:101F9000D3F80F2001F0D0F828480078032815D195
:101FA00028480068401E2749086008460068002845
:101FB00001DA63200860234801784C2000F095FF87
:101FC000CC2001F0B9F80F2001F0B6F84FF4807181
:101FD0001D48FEF7F6FF58BB022000F0B2FF4FF499
:101FE00080711948FEF7EDFF10BB00BF4FF4807100
:101FF0001548FEF7E6FF0028F8D01448007808B925
:10200000012000E00020114908700846007840B91E
:1020100001200F4908604FF000000E4908700E497A
:1020200008700A480078012802D100200849086099
:1020300010BD0000610000203A010020390100209D
:102040005C000020A0020020000801403D010020AB
:10205000B00121423C0100203E010020F0B50546C0
:102060000E460027012D01D1822702E0022D00D16A
:10207000C227002409E0384601F05EF8305D01F027
:102080008DF8781CC7B2601CC4B20B2CF3DBF0BD1A
:10209000F0B505460E460027012D01D1802702E04C
:1020A000022D00D1C027002409E0384601F044F891
:1020B000305D01F073F8781CC7B2601CC4B2102CFC
:1020C000F3DBF0BD10B50020174908604FF0380071
:1020D00001F032F80C2001F02FF8062001F02CF866
:1020E000012001F029F8802001F026F8002408E002
:1020F0000E49085D01F052F8052000F03AFF601C1F
:10210000C4B2102CF4DBC02001F016F8002408E063
:102110000749085D01F042F8052000F02AFF601C25
:10212000C4B2102CF4DB10BDBC01224236000020EA
:102130004700002008B54FF4C06000F049F82520A2
:102140008DF8000000208DF8010001208DF80200BC
:102150008DF80300684600F001F808BD70B5002155
:1021600000230F22C4780CB3164C246804F4E064F6
:10217000C4F5E064210AC1F10403CA40447804FABA
:1021800003F184781440214309010F4C0678A155CE
:10219000047804F01F050124AC4005786D114FF060
:1021A000E02606EB8505C5F8004109E0047804F057
:1021B0001F050124AC40054D0678761145F82640F0
:1021C00070BD00000CED00E000E400E080E100E004
:1021D00002490143024A1160704700000000FA05FD
:1021E0000CED00E001460020034A506820F4404016
:1021F00008435060704700000010024029B1064AB1
:10220000D2690243044BDA6104E0034AD269824393
:10221000014BDA61704700000010024029B1064A04
:1022200012690243044B1A6104E0034A12698243B3
:10223000014B1A61704700000010024029B1064AA4
:1022400092690243044B9A6104E0034A9269824313
:10225000014B9A61704700000010024029B1064A04
:10226000D2680243044BDA6004E0034AD268824336
:10227000014BDA60704700000010024030B50021C9
:102280000022002400232D4D6D6805F00C0121B1C2
:10229000042905D0082923D105E0294D056022E055
:1022A000274D05601FE0254D6D6805F47012234D24
:1022B0006D6805F48034022505EB92421CB9214D6E
:1022C000554305600BE01D4D6D6815F4003F03D0CC
:1022D0001C4D5543056002E0194D5543056002E071
:1022E000174D056000BF00BF144D6D6805F0F0018B
:1022F0000909154D6B5C0568DD4045600F4D6D6843
:1023000005F4E061090A104D6B5C4568DD408560AD
:102310000A4D6D6805F46051C90A0B4D6B5C456848
:10232000DD40C560054D6D6805F44041890B074DE2
:102330006B5CC568B5FBF3F5056130BD001002406C
:1023400000127A0000093D00A4020020B40200201F
:1023500010B5B448007801287ED1B348407B3028BE
:102360002BDBB148407B392827DCAF48807B302805
:1023700003DBAD48807B39281FDDAB48007BAB49D0
:1023800008724FF47A7000F0E8FDA748407BA74937
:1023900048724FF47A7000F0E0FDA348007BA44936
:1023A00008724FF47A7000F0D8FD9F48407BA04936
:1023B00048724FF47A7000F0D0FD9B48407B302883
:1023C00003DB9948407B39281DDD3020974908728E
:1023D0004FF47A7000F0C1FD9348007B9349487236
:1023E0004FF47A7000F0B9FD3020914908724FF433
:1023F0007A7000F0B2FD8C48007B8D4948724FF432
:102400007A7000F0AAFD0B21884800F025F94CF203
:10241000503000F0A2FD4CF2503000F09EFD4CF226
:10242000503000F09AFD80488079824909788842CE
:102430001FD17D48C0797F494978884219D17A48AF
:10244000007A7C498978884213D17748407A794963
:10245000C97888420DD100E0D0E07348807A754990
:102460000979884205D17048C07A72494979884211
:1024700023D06D48C0786F49097888423FD16A48B7
:1024800000796C494978884239D16748407969496F
:102490008978884233D1644880796649C97888420E
:1024A0002DD16148C07963490979884227D15E48B6
:1024B000007A60494979884221D101205E4908604B
:1024C0004FF00B015A4800F0C7F842F2107000F0CC
:1024D00044FD00F0D5F842F2107000F03EFD0D21F1
:1024E000564800F0B9F842F2107000F036FD0121B4
:1024F000534800F0B1F844F6206000F02EFD4A4841
:10250000807950490978884223D14748C0794D499C
:10251000497888421DD14448007A4A4989788842DE
:1025200017D14148407A4749C978884211D13E487D
:10253000807A4449097988420BD13B48C07A4149A5
:102540004979884205D13848007B3E4989798842DB
:1025500029D03548C0783B490978884245D132486E
:1025600000793849497888423FD12F484079354928
:102570008978884239D12C4880793249C978884293
:1025800033D12948C0792F49097988422DD126486D
:10259000007A2C494979884227D12348407A294931
:1025A0008979884221D10020234908604FF00B012E
:1025B0001F4800F051F842F2107000F0CEFC00F01D
:1025C0005FF842F2107000F0C8FC0D211E4800F0C8
:1025D00043F842F2107000F0C0FC0121184800F0EE
:1025E0003BF844F6206000F0B8FC40200E494873E8
:1025F00088730020154908700A490870144800784B
:1026000001280ED10421134800F026F84CF2503076
:1026100000F0A3FC00F044F900200D4908700B49BC
:10262000087010BD95020020B8020020770100203C
:102630008401002086020020B00121426C020020AB
:10264000D20100208D020020790200209802002093
:1026500097020020C501002070B505460E460024F3
:1026600009E0295D054800F03CFC4FF4FA7000F0E9
:1026700074FC601CC4B2B442F3DB70BD003801408E
:1026800010B50320FEF746FD2E4908700420FEF722
:1026900041FD2C4948700520FEF73CFD2949887012
:1026A0000620FEF737FD2749C8700720FEF732FDE8
:1026B000244908710820FEF72DFD224948710920A0
:1026C000FEF728FD1F4988711020FEF723FD1D49E4
:1026D000C8711120FEF71EFD1A4908721220FEF77C
:1026E00019FD184948721320FEF714FD1549887228
:1026F00008211548FFF7B0FF41F2883000F02DFCAB
:1027000001211248FFF7A8FF4FF47A7000F025FC72
:102710000B210C48FFF7A0FF4FF47A7000F01DFC6E
:1027200001210A48FFF798FF4FF47A7000F015FC7A
:1027300001210748FFF790FF4FF47A7000F00DFC7D
:1027400010BD00005D010020500100205901002053
:102750005A01002010B5154800680A2190FBF1F0DD
:102760001349085C13490870104800680A2190FB5F
:10277000F1F201FB12000E49085C0E494870FFF7A8
:102780007FFF42F2107000F0E8FB38210948FFF7A4
:1027900063FF42F2107000F0E0FB01210648FFF7F2
:1027A0005BFF4FF47A7000F0D8FB10BD9C02002054
:1027B000D30100202E020020D201002010B5FFF727
:1027C0005FFF42F2107000F0C8FB22210748FFF7BC
:1027D00043FF42F2107000F0C0FB01210448FFF7F4
:1027E0003BFF4FF47A7000F0B8FB10BD0C020020E4
:1027F000D201002010B525480068002801DD012025
:1028000000E0002021490968642901DA012100E083
:102810000021084222D01E480078012803D11D481B
:10282000807A1D4908701A48007818B91948C07A8A
:1028300019490870154800680A2190FBF1F0154904
:10284000085C15494870114800680A2190FBF1F2B4
:1028500001FB12000F49085C0F498870FFF710FF59
:1028600042F2107000F079FB2C210B48FFF7F4FEC8
:1028700042F2107000F071FB01210848FFF7ECFEF6
:102880004FF47A7000F069FB10BD00005800002082
:1028900060000020D3010020E0010020D2010020D0
:1028A00010B533480068002801DD012000E0002059
:1028B0002F490968642901DA012100E0002108425A
:1028C00022D02C480078012803D12B48807A2B494C
:1028D00008702848007818B92748C07A2749087036
:1028E000234800680A2190FBF1F02349085C234942
:1028F00048701F4800680A2190FBF1F201FB1200AA
:102900001D49085C1D4988701D4800680A2190FB1C
:10291000F1F01949085C1B49C870194800680A2180
:1029200090FBF1F201FB12001349085C1549087194
:10293000FFF7A6FE4CF2503000F00FFB04210F48C9
:10294000FFF78AFE41F2883000F007FB06210D48B0
:10295000FFF782FE41F2883000F0FFFA01210A48B9
:10296000FFF77AFE4FF47A7000F0F7FA10BD00001E
:102970005800002060000020D3010020E00100206A
:102980009C02002066020020D201002010B500F059
:1029900001F810BD0CB5002001900090324800688D
:1029A00040F480303049086000BF2F48006800F4D0
:1029B000003000900198401C0190009818B90198CF
:1029C000B0F5A06FF1D12848006810F4003F02D0A4
:1029D0000120009001E0002000900098012842D1E1
:1029E0002248006840F0100020490860084600684E
:1029F00020F0030008600846006840F0020008600C
:102A000019484068184948600846406848600846C8
:102A1000406840F4806048600846406820F47C10BC
:102A200048600846406840F4E8104860084600687E
:102A300040F08070086000BF0B48006810F0007F15
:102A4000FAD00948406820F003000749486008466A
:102A5000406840F00200486000BF0348406800F052
:102A60000C000828F9D10CBD0010024000200240E3
:102A700000B585B01A48FDF71BFE4FF40040FFF784
:102A8000B1FB01214802FFF7D9FB002000908DF82F
:102A900004008DF805004FF46020029000200390A0
:102AA00001208DF8100069460D48FDF747FE012111
:102AB0000B48FDF7F1FD0A48FDF7C4FE00BF0848CA
:102AC000FDF732FE0028FAD10548FDF7CBFE00BF26
:102AD0000348FDF71BFE0028FAD105B000BD000039
:102AE0000024014010B51348006840F0010011496E
:102AF000086008464068104908400E49486008468A
:102B000000680E4908400B4908600846006820F438
:102B1000802008600846406820F4FE0048604FF4BA
:102B20001F008860FFF732FF4FF000600449086023
:102B300010BD0000001002400000FFF8FFFFF6FE8D
:102B400008ED00E00EB501210846FFF757FB41F202
:102B50008830ADF804004FF4E150ADF800000020DB
:102B6000ADF80600ADF8020069464FF0804000F075
:102B700033F801221146900700F025F8012188075B
:102B800000F004F80EBDCA430282704721B10288EA
:102B900042F00102028004E002884FF6FE731A4000
:102BA0000280704730B50246002000230024158AB9
:102BB00005EA0103958905EA010413B10CB101206E
:102BC00000E0002030BD1AB183890B43838102E00D
:102BD00083898B4383817047002202881D4B984272
:102BE0000ED01D4B98420BD0B0F1804F08D01B4B3C
:102BF000984205D01A4B984202D01A4B984204D101
:102C00004FF68F731A404B881A43174B984207D0E0
:102C1000164B984204D04FF6FF431A40CB881A4314
:102C200002808B8883850B8803850A4B98420BD0E2
:102C3000094B984208D00E4B984205D00D4B984254
:102C400002D00D4B984201D10B7A03860123838277
:102C500070470000002C0140003401400004004097
:102C600000080040000C004000100040001400402C
:102C700000400140004401400048014010B540F2CE
:102C80002551254800F06DF8002843D040F2255129
:102C9000214800F04BF8204800F01EF91F49204A57
:102CA0001278885408461E490978405C2B2802D1C6
:102CB00000201B49087019484078432812D1174852
:102CC00080784C280ED11548C07849280AD113487D
:102CD0000079502806D1114840793A2802D10120C4
:102CE000104908700D48407843280ED10B48807871
:102CF0004D280AD10948C078542806D107480079E0
:102D0000492802D101200849087005480078401C74
:102D10000349087010BD000000380140B8020020CF
:102D200098020020970200209502002010B5002292
:102D30000023A1F510646A3C00D100BF0A120124EF
:102D40009440A3B2DC43048010BD21B1828942F4D7
:102D50000052828104E082894DF6FF731A4082811D
:102D6000704770B502460024002300250020A1F51D
:102D700010666A3E00D100BFC1F3421501F01F0387
:102D8000012606FA03F3012D02D19689334006E0AD
:102D9000022D02D1168A334001E0968A33400C128C
:102DA000012606FA04F41688344013B10CB1012050
:102DB00000E0002070BDF0B5034600240026002589
:102DC0000020A1F510676A3F00D100BF1846C1F38B
:102DD000421401F01F06012707FA06F5012C01D164
:102DE0000C3004E0022C01D1103000E014301AB194
:102DF00007682F43076002E00768AF430760F0BD34
:102E00002DE9F04786B005460E460024A24600BFD5
:102E1000A1460027B08900B100BF2F462C8A4CF68E
:102E2000FF700440F08804432C82AC894EF6F31006
:102E30000440B08831890843718908430443AC8158
:102E4000AC8A4FF6FF400440B0890443AC8201A82D
:102E5000FFF714FA1F48874202D1DDF810A001E005
:102E6000DDF80CA0A88910F4004F08D00AEBCA00C6
:102E700000EB0A1031684900B0FBF1F807E00AEBFB
:102E8000CA0000EB0A1031688900B0FBF1F8642039
:102E9000B8FBF0F004012009642101FB1089A88926
:102EA00010F4004F08D0322000EBC900B0FBF1F065
:102EB00000F00700044308E0322000EB0910642111
:102EC000B0FBF1F000F00F0004432C8106B0BDE828
:102ED000F08700000038014001468888C0F30800F0
:102EE0007047C1F3080282807047F0B505460C4672
:102EF0000A2094FBF0F0C6B20A2094FBF0F100FB2C
:102F00001140C7B205F18001C8B200F015F906F111
:102F10003001C8B200F042F907F13001C8B200F048
:102F20003DF9F0BD02E008C8121F08C1002AFAD11D
:102F300070477047002001E001C1121F002AFBD139
:102F40007047014606E041F2883200E0521E002A36
:102F5000FCD1491E0029F6D17047014606E04FF426
:102F6000967200E0521E002AFCD1491E0029F6D1BB
:102F70007047014606E04FF4FA7200E0521E002A44
:102F8000FCD1491E0029F6D17047014605E00A220E
:102F900000E0521E002AFCD1491E0029F7D17047DB
:102FA0001FB5FDF76FFEFDF7FFFEFDF727FFFFF7EB
:102FB000C1F8FFF75DFDFEF705FAFFF7C3FDFDF76A
:102FC0007DFDFDF715FD4B490860FFF77BF8FDF728
:102FD0007DFE0120FEF79EF8474908600220FEF7BB
:102FE00099F84649086049F64040FDF739FE49F630
:102FF0004040FDF735FEFDF7F1FF41490120FFF7A5
:1030000047F840490220FFF743F8FEF74CFA6FE01B
:10301000FFF79EF9FEF77EFA3B480078002863D15F
:1030200001218807FFF7BEFD01284ED1FDF7E0FC26
:103030003049086001218807FFF7A5FD01231A46E2
:1030400009213248FDF7A2FB01213048FDF7FFFBC3
:103050002E48FDF765FB0190FDF71FFA80462C4ACC
:103060002C4BFDF728F906462B4A2C4BFDF795F91A
:1030700000222B4BCDE90201FDF71DF90446002289
:10308000284BFDF712F98246FDF714FA264908602D
:1030900008460068002801DA00200860224801780C
:1030A0000620FFF722FF2148007801280DD1204893
:1030B0000078401C1E49087008460078142804DB7C
:1030C0000020087001201B4908700A4801780C2074
:1030D000FFF70BFF084801784C20FFF706FF074871
:1030E00001784620FFF701FFFDF7C2FBFEF7F4F978
:1030F0008EE70000580000205C000020A0020020A5
:1031000000000020110000203B01002000240140AD
:10311000F564FED137694A3F71A57B03CAC4E53F18
:1031200000003440000024409C0200203D010020AB
:103130003E0100203C01002010B504460020134948
:1031400008604FF00500FFF714FF00201049C1F898
:10315000B4010520FFF70DFF01200E4908604FF074
:103160000500FFF706FF0C48006800F47F4020438D
:10317000094908600520FFF7FCFE00200449C1F85A
:10318000BC010520FFF7F5FE10BD0000B80122428A
:1031900000002242BC0122420C08014010B5044646
:1031A0000020134908604FF00500FFF7E2FE012000
:1031B0001049C1F8B4010520FFF7DBFE01200E49DC
:1031C00008604FF00500FFF7D4FE0C48006800F4DB
:1031D0007F402043094908600520FFF7CAFE002010
:1031E0000449C1F8BC010520FFF7C3FE10BD000073
:1031F000B801224200002242BC0122420C080140D8
:103200002032000800000020B80200003806000844
:10321000B8330008B802002080040000342F0008F2
:1032200010064E4F573A2001222505C008204320A2
:1032300000534554111101D2200170240047534D11
:10324000204D6F64756C6520416C61726D0053494F
:103250004D20496E697469616C697A6521210001AC
:10326000823001101E0020312E50686F6E65204E96
:10327000756D626572200020322E5365742054658E
:103280006D700F1159332033113006536D6F6B651C
:103290006AF17B211FA1459004002D2D2480052D6E
:1032A0002D2D0052E006617475726544424344411D
:1032B00063D007436F6E63656E22040423252000EC
:1032C0001711DE100541540D0A0570082B434D47B8
:1032D000463D310C1005533D002219A533111970DC
:1032E000094950523D39363030277005523D202073
:1032F00040C2440D62304E500A4E4D493D312C3192
:103300002C322A70044C49506A400452433D4E32DC
:103310004806224582200E1A303132333435363792
:1033200038392B2DFCB7432C0F241F657863656556
:1033300064206C696D69742C20706C656173652004
:103340006E6F746521536F6D659EC00D696E20743C
:10335000686520686F757365221928162C34140867
:103360006D627573746962FE3409676173206F72F0
:1033700020734D01185A2B202663100549742069CB
:103380002F400770656E6564210D1005636C6F73C7
:103390000D001011234F50454E230023434C4F5333
:1033A000452300012005010203040400090006076B
:0833B0000809020406080000F0
:0400000508000131BD
:00000001FF
